{
  "_format": "hh-sol-artifact-1",
  "contractName": "FirstBankOfDefi",
  "sourceName": "contracts/FirstBankOfDefi.sol",
  "abi": [
    {
      "inputs": [
        {
          "internalType": "uint256",
          "name": "amount",
          "type": "uint256"
        }
      ],
      "name": "deposit",
      "outputs": [
        {
          "internalType": "uint256",
          "name": "",
          "type": "uint256"
        }
      ],
      "stateMutability": "nonpayable",
      "type": "function"
    },
    {
      "inputs": [],
      "name": "getCurrent",
      "outputs": [
        {
          "internalType": "uint256",
          "name": "",
          "type": "uint256"
        }
      ],
      "stateMutability": "view",
      "type": "function"
    },
    {
      "inputs": [
        {
          "internalType": "uint256",
          "name": "amount",
          "type": "uint256"
        }
      ],
      "name": "withdraw",
      "outputs": [
        {
          "internalType": "uint256",
          "name": "",
          "type": "uint256"
        }
      ],
      "stateMutability": "nonpayable",
      "type": "function"
    }
  ],
  "bytecode": "0x608060405234801561001057600080fd5b50610293806100206000396000f3fe608060405234801561001057600080fd5b50600436106100415760003560e01c80632e1a7d4d1461004657806335a5cfcb14610088578063b6b55f25146100a6575b600080fd5b6100726004803603602081101561005c57600080fd5b81019080803590602001909291905050506100e8565b6040518082815260200191505060405180910390f35b61009061017f565b6040518082815260200191505060405180910390f35b6100d2600480360360208110156100bc57600080fd5b81019080803590602001909291905050506101c6565b6040518082815260200191505060405180910390f35b600080600160003373ffffffffffffffffffffffffffffffffffffffff1673ffffffffffffffffffffffffffffffffffffffff168152602001908152602001600020549050828103905080600160003373ffffffffffffffffffffffffffffffffffffffff1673ffffffffffffffffffffffffffffffffffffffff1681526020019081526020016000208190555080915050919050565b6000600160003373ffffffffffffffffffffffffffffffffffffffff1673ffffffffffffffffffffffffffffffffffffffff16815260200190815260200160002054905090565b600080600160003373ffffffffffffffffffffffffffffffffffffffff1673ffffffffffffffffffffffffffffffffffffffff168152602001908152602001600020549050828101905080600160003373ffffffffffffffffffffffffffffffffffffffff1673ffffffffffffffffffffffffffffffffffffffff168152602001908152602001600020819055508091505091905056fea2646970667358221220fe2914b27cc3e5cb638aae83b82b4bf8b2dddb49ed064835f6510890a6b05cf264736f6c63430007030033",
  "linkReferences": {},
  "deployedLinkReferences": {}
}